{
  "contractName": "Casino",
  "abi": [
    {
      "inputs": [
        {
          "internalType": "uint256",
          "name": "_minBet",
          "type": "uint256"
        },
        {
          "internalType": "uint256",
          "name": "_maxBets",
          "type": "uint256"
        }
      ],
      "payable": false,
      "stateMutability": "nonpayable",
      "type": "constructor"
    },
    {
      "anonymous": false,
      "inputs": [
        {
          "indexed": false,
          "internalType": "uint256",
          "name": "amount",
          "type": "uint256"
        },
        {
          "indexed": false,
          "internalType": "uint256",
          "name": "numberSelected",
          "type": "uint256"
        },
        {
          "indexed": false,
          "internalType": "address",
          "name": "player",
          "type": "address"
        }
      ],
      "name": "BetAdded",
      "type": "event"
    },
    {
      "anonymous": false,
      "inputs": [],
      "name": "CasinoReset",
      "type": "event"
    },
    {
      "anonymous": false,
      "inputs": [
        {
          "indexed": false,
          "internalType": "uint256",
          "name": "prizePerWinner",
          "type": "uint256"
        },
        {
          "indexed": false,
          "internalType": "uint256",
          "name": "totalWinners",
          "type": "uint256"
        }
      ],
      "name": "PrizesDistributed",
      "type": "event"
    },
    {
      "payable": true,
      "stateMutability": "payable",
      "type": "fallback"
    },
    {
      "constant": true,
      "inputs": [],
      "name": "LIMIT_MAX_AMOUNT_BETS",
      "outputs": [
        {
          "internalType": "uint256",
          "name": "",
          "type": "uint256"
        }
      ],
      "payable": false,
      "stateMutability": "view",
      "type": "function"
    },
    {
      "constant": true,
      "inputs": [],
      "name": "maxAmountOfBets",
      "outputs": [
        {
          "internalType": "uint256",
          "name": "",
          "type": "uint256"
        }
      ],
      "payable": false,
      "stateMutability": "view",
      "type": "function"
    },
    {
      "constant": true,
      "inputs": [],
      "name": "minimumBet",
      "outputs": [
        {
          "internalType": "uint256",
          "name": "",
          "type": "uint256"
        }
      ],
      "payable": false,
      "stateMutability": "view",
      "type": "function"
    },
    {
      "constant": true,
      "inputs": [],
      "name": "numberOfBets",
      "outputs": [
        {
          "internalType": "uint256",
          "name": "",
          "type": "uint256"
        }
      ],
      "payable": false,
      "stateMutability": "view",
      "type": "function"
    },
    {
      "constant": true,
      "inputs": [],
      "name": "owner",
      "outputs": [
        {
          "internalType": "address",
          "name": "",
          "type": "address"
        }
      ],
      "payable": false,
      "stateMutability": "view",
      "type": "function"
    },
    {
      "constant": true,
      "inputs": [
        {
          "internalType": "address",
          "name": "",
          "type": "address"
        }
      ],
      "name": "playerInfo",
      "outputs": [
        {
          "internalType": "uint256",
          "name": "amountBet",
          "type": "uint256"
        },
        {
          "internalType": "uint256",
          "name": "numberSelected",
          "type": "uint256"
        }
      ],
      "payable": false,
      "stateMutability": "view",
      "type": "function"
    },
    {
      "constant": true,
      "inputs": [
        {
          "internalType": "uint256",
          "name": "",
          "type": "uint256"
        }
      ],
      "name": "players",
      "outputs": [
        {
          "internalType": "address",
          "name": "",
          "type": "address"
        }
      ],
      "payable": false,
      "stateMutability": "view",
      "type": "function"
    },
    {
      "constant": true,
      "inputs": [],
      "name": "totalBet",
      "outputs": [
        {
          "internalType": "uint256",
          "name": "",
          "type": "uint256"
        }
      ],
      "payable": false,
      "stateMutability": "view",
      "type": "function"
    },
    {
      "constant": false,
      "inputs": [
        {
          "internalType": "uint256",
          "name": "_numberSelected",
          "type": "uint256"
        }
      ],
      "name": "bet",
      "outputs": [],
      "payable": true,
      "stateMutability": "payable",
      "type": "function"
    },
    {
      "constant": true,
      "inputs": [
        {
          "internalType": "address",
          "name": "_player",
          "type": "address"
        }
      ],
      "name": "checkPlayerExists",
      "outputs": [
        {
          "internalType": "bool",
          "name": "",
          "type": "bool"
        }
      ],
      "payable": false,
      "stateMutability": "view",
      "type": "function"
    },
    {
      "constant": false,
      "inputs": [],
      "name": "generateWinnerNumber",
      "outputs": [],
      "payable": false,
      "stateMutability": "nonpayable",
      "type": "function"
    },
    {
      "constant": false,
      "inputs": [
        {
          "internalType": "uint256",
          "name": "_winnerNumber",
          "type": "uint256"
        }
      ],
      "name": "distributePrizes",
      "outputs": [],
      "payable": false,
      "stateMutability": "nonpayable",
      "type": "function"
    },
    {
      "constant": false,
      "inputs": [],
      "name": "resetData",
      "outputs": [],
      "payable": false,
      "stateMutability": "nonpayable",
      "type": "function"
    },
    {
      "constant": false,
      "inputs": [],
      "name": "kill",
      "outputs": [],
      "payable": false,
      "stateMutability": "nonpayable",
      "type": "function"
    }
  ],
  "bytecode": "0x6080604052655af3107a4000600155600a60045534801561001f57600080fd5b50604051610d59380380610d598339818101604052604081101561004257600080fd5b810190808051906020019092919080519060200190929190505050336000806101000a81548173ffffffffffffffffffffffffffffffffffffffff021916908373ffffffffffffffffffffffffffffffffffffffff160217905550600082146100ad57816001819055505b6000811180156100be575060648111155b156100cb57806004819055505b5050610c7d806100dc6000396000f3fe6080604052600436106100dd5760003560e01c80637365870b1161007f578063e08a96cd11610059578063e08a96cd14610323578063f71d96cb1461034e578063fb1796e0146103c9578063fe5e1853146103e0576100dd565b80637365870b146102735780638da5cb5b146102a1578063c38a8afd146102f8576100dd565b806341c0e1b5116100bb57806341c0e1b51461019e578063478c4e0e146101b55780634b114691146101cc5780636ca3fc3b14610238576100dd565b80632ca8c6d3146100df5780634081d9161461010a57806341769d4314610173575b005b3480156100eb57600080fd5b506100f461040b565b6040518082815260200191505060405180910390f35b34801561011657600080fd5b506101596004803603602081101561012d57600080fd5b81019080803573ffffffffffffffffffffffffffffffffffffffff169060200190929190505050610411565b604051808215151515815260200191505060405180910390f35b34801561017f57600080fd5b506101886104b3565b6040518082815260200191505060405180910390f35b3480156101aa57600080fd5b506101b36104b8565b005b3480156101c157600080fd5b506101ca610549565b005b3480156101d857600080fd5b5061021b600480360360208110156101ef57600080fd5b81019080803573ffffffffffffffffffffffffffffffffffffffff169060200190929190505050610597565b604051808381526020018281526020019250505060405180910390f35b34801561024457600080fd5b506102716004803603602081101561025b57600080fd5b81019080803590602001909291905050506105bb565b005b61029f6004803603602081101561028957600080fd5b8101908080359060200190929190505050610826565b005b3480156102ad57600080fd5b506102b6610b21565b604051808273ffffffffffffffffffffffffffffffffffffffff1673ffffffffffffffffffffffffffffffffffffffff16815260200191505060405180910390f35b34801561030457600080fd5b5061030d610b46565b6040518082815260200191505060405180910390f35b34801561032f57600080fd5b50610338610b4c565b6040518082815260200191505060405180910390f35b34801561035a57600080fd5b506103876004803603602081101561037157600080fd5b8101908080359060200190929190505050610b52565b604051808273ffffffffffffffffffffffffffffffffffffffff1673ffffffffffffffffffffffffffffffffffffffff16815260200191505060405180910390f35b3480156103d557600080fd5b506103de610b8e565b005b3480156103ec57600080fd5b506103f5610bac565b6040518082815260200191505060405180910390f35b60035481565b600080600090505b6005805490508110156104a8578273ffffffffffffffffffffffffffffffffffffffff166005828154811061044a57fe5b9060005260206000200160009054906101000a900473ffffffffffffffffffffffffffffffffffffffff1673ffffffffffffffffffffffffffffffffffffffff16141561049b5760019150506104ae565b8080600101915050610419565b50600090505b919050565b606481565b6000809054906101000a900473ffffffffffffffffffffffffffffffffffffffff1673ffffffffffffffffffffffffffffffffffffffff163373ffffffffffffffffffffffffffffffffffffffff161415610547576000809054906101000a900473ffffffffffffffffffffffffffffffffffffffff1673ffffffffffffffffffffffffffffffffffffffff16ff5b565b60006005816105589190610bb2565b50600060028190555060006003819055507ff160a6e4e7c7a4927da7900929d793f71412802d63d1747e17b4b30d575233d060405160405180910390a1565b60066020528060005260406000206000915090508060000154908060010154905082565b6105c3610bde565b600080905060008090505b60058054905081101561070e576000600582815481106105ea57fe5b9060005260206000200160009054906101000a900473ffffffffffffffffffffffffffffffffffffffff16905084600660008373ffffffffffffffffffffffffffffffffffffffff1673ffffffffffffffffffffffffffffffffffffffff1681526020019081526020016000206001015414156106ae578084846064811061066e57fe5b602002019073ffffffffffffffffffffffffffffffffffffffff16908173ffffffffffffffffffffffffffffffffffffffff168152505082806001019350505b600660008273ffffffffffffffffffffffffffffffffffffffff1673ffffffffffffffffffffffffffffffffffffffff168152602001908152602001600020600080820160009055600182016000905550505080806001019150506105ce565b50600060646002548161071d57fe5b049050610728610549565b60008090505b828110156107df57600073ffffffffffffffffffffffffffffffffffffffff1684846064811061075a57fe5b602002015173ffffffffffffffffffffffffffffffffffffffff16146107d25783816064811061078657fe5b602002015173ffffffffffffffffffffffffffffffffffffffff166108fc839081150290604051600060405180830381858888f193505050501580156107d0573d6000803e3d6000fd5b505b808060010191505061072e565b507f329f5cd0d1a0c708183708da49f688d169bfd6e9203310c8d56d4d26c144fafe816064604051808381526020018281526020019250505060405180910390a150505050565b61082f33610411565b156108a2576040517f08c379a00000000000000000000000000000000000000000000000000000000081526004018080602001828103825260198152602001807f506c6179657220616c726561647920706c61636564206265740000000000000081525060200191505060405180910390fd5b600181101580156108b45750600a8111155b610926576040517f08c379a000000000000000000000000000000000000000000000000000000000815260040180806020018281038252601f8152602001807f4e756d626572206d757374206265206265747765656e203120616e642031300081525060200191505060405180910390fd5b600154341015610981576040517f08c379a0000000000000000000000000000000000000000000000000000000008152600401808060200182810382526022815260200180610c276022913960400191505060405180910390fd5b34600660003373ffffffffffffffffffffffffffffffffffffffff1673ffffffffffffffffffffffffffffffffffffffff1681526020019081526020016000206000018190555080600660003373ffffffffffffffffffffffffffffffffffffffff1673ffffffffffffffffffffffffffffffffffffffff1681526020019081526020016000206001018190555060036000815480929190600101919050555060053390806001815401808255809150509060018203906000526020600020016000909192909190916101000a81548173ffffffffffffffffffffffffffffffffffffffff021916908373ffffffffffffffffffffffffffffffffffffffff16021790555050346002600082825401925050819055507f3cbc4f55b8dbc8e27767f3a93b99bfffcb2ca3745101b67f72be1d81c9652e8b348233604051808481526020018381526020018273ffffffffffffffffffffffffffffffffffffffff1673ffffffffffffffffffffffffffffffffffffffff168152602001935050505060405180910390a160045460035410610b1e57610b1d610b8e565b5b50565b6000809054906101000a900473ffffffffffffffffffffffffffffffffffffffff1681565b60015481565b60045481565b60058181548110610b5f57fe5b906000526020600020016000915054906101000a900473ffffffffffffffffffffffffffffffffffffffff1681565b60006001600a4381610b9c57fe5b06019050610ba9816105bb565b50565b60025481565b815481835581811115610bd957818360005260206000209182019101610bd89190610c01565b5b505050565b60405180610c800160405280606490602082028038833980820191505090505090565b610c2391905b80821115610c1f576000816000905550600101610c07565b5090565b9056fe56616c7565206e6f742067726561746572207468616e206d696e696d756d20626574a265627a7a723158206ba603b3bbf89f89ed16030ef0e062f6b77dc7dbb83b058e67cf06bc48033d4d64736f6c63430005100032",
  "source": "// SPDX-License-Identifier: MIT\n// cast address to address payable:\n// https://ethereum.stackexchange.com/questions/65693/how-to-cast-address-to-address-payable-in-solidity-0-5-0\n\npragma solidity ^0.5.0;\n\ncontract Casino {\n    address public owner;\n    uint256 public minimumBet = 100 szabo; // 0.0001 ether\n    uint256 public totalBet;\n    uint256 public numberOfBets;\n    uint256 public maxAmountOfBets = 10;\n    uint256 public constant LIMIT_MAX_AMOUNT_BETS = 100;\n    address[] public players;\n\n    struct Player {\n        uint256 amountBet;\n        uint256 numberSelected;\n    }\n\n    mapping(address => Player) public playerInfo;\n\n    event BetAdded(uint256 amount, uint256 numberSelected, address player);\n    event CasinoReset();\n    event PrizesDistributed(uint256 prizePerWinner, uint256 totalWinners);\n\n    constructor(uint256 _minBet, uint256 _maxBets) public {\n        owner = msg.sender;\n        if(_minBet != 0)\n            minimumBet = _minBet;\n        if(_maxBets > 0 && _maxBets <= LIMIT_MAX_AMOUNT_BETS)\n            maxAmountOfBets = _maxBets;\n    }\n\n    // payable is a modifier.\n    // It means this function can receive ether when executed\n    // sets value to msg.value (amount of wei)\n    function bet(uint256 _numberSelected) public payable {\n        require(!checkPlayerExists(msg.sender), \"Player already placed bet\");\n        require(_numberSelected >= 1 && _numberSelected <= 10, \"Number must be between 1 and 10\");\n        require(msg.value >= minimumBet, \"Value not greater than minimum bet\");\n\n        playerInfo[msg.sender].amountBet = msg.value;\n        playerInfo[msg.sender].numberSelected = _numberSelected;\n        numberOfBets++;\n        players.push(msg.sender);\n        totalBet += msg.value;\n        emit BetAdded(msg.value, _numberSelected, msg.sender);\n\n        if(numberOfBets >= maxAmountOfBets) generateWinnerNumber();\n    }\n\n    // constant indicates this function does not call gas\n    // since it is reading values that are already in the blockchain\n    // players (is a state variable)\n    function checkPlayerExists(address _player) public view returns(bool) {\n        for(uint256 i = 0; i < players.length; i++) {\n            if(players[i] == _player) return true;\n        }\n\n        return false;\n    }\n\n    function generateWinnerNumber() public {\n        // this isn't secure since block number will not change\n        // for the current block, so miners can see it\n        // QuestionToSelf: when is this block generated\n        uint256 winnerNumber = block.number % 10 + 1;\n        distributePrizes(winnerNumber);\n    }\n\n    function distributePrizes(uint256 _winnerNumber) public {\n        // why is it necesary to create fixed size array\n        address payable[100] memory winners;\n        // count for the array of winners\n        uint256 count = 0;\n\n        for(uint256 i = 0; i < players.length; i++) {\n            address playerAddress = players[i];\n            if(playerInfo[playerAddress].numberSelected == _winnerNumber) {\n                winners[count] = address(uint160(playerAddress));\n                count++;\n            }\n            // this will delete all the players betting data\n            delete playerInfo[playerAddress];\n        }\n\n        // How much each winner gets\n        uint256 winnerEtherAmount = totalBet / winners.length;\n        resetData();\n\n        for(uint256 j = 0; j < count; j++) {\n            // Check that the address in this fixed array is not empty\n            // QuestionToSelf: how to allow dynamic number of players?\n            // and what does address(0) mean exactly\n            if(winners[count] != address(0)) {\n                winners[j].transfer(winnerEtherAmount);\n            }\n        }\n        emit PrizesDistributed(winnerEtherAmount, winners.length);\n    }\n\n    function resetData() public { // TODO: emit event\n        players.length = 0; // delete players array\n        totalBet = 0;\n        numberOfBets = 0;\n        emit CasinoReset();\n    }\n\n    // Fallback function in case someone sends ether to the contract,\n    // so it doesn't get lost and to increase the treasury of thi\n    //  contract that will be distributed in each game\n    function() external payable {}\n\n    // used to destroy contract.\n    // last resort when contract has been compromised\n    // and can't be secured\n    function kill() public {\n        if(msg.sender == owner) {\n            selfdestruct(address(uint160(owner)));\n        }\n    }\n}\n",
  "sourcePath": "/home/mime/Documents/IndexZero/blockchains/betting-dapp/contracts/Casino.sol",
  "compiler": {
    "name": "solc",
    "version": "0.5.16+commit.9c3226ce.Emscripten.clang"
  },
  "schemaVersion": "3.4.1",
  "updatedAt": "2021-07-05T20:58:53.394Z",
  "networkType": "ethereum",
  "devdoc": {
    "methods": {}
  },
  "userdoc": {
    "methods": {}
  }
}