{
  "contractName": "Casino",
  "abi": [
    {
      "inputs": [
        {
          "internalType": "uint256",
          "name": "_minBet",
          "type": "uint256"
        },
        {
          "internalType": "uint256",
          "name": "_maxBets",
          "type": "uint256"
        }
      ],
      "payable": false,
      "stateMutability": "nonpayable",
      "type": "constructor"
    },
    {
      "payable": true,
      "stateMutability": "payable",
      "type": "fallback"
    },
    {
      "constant": true,
      "inputs": [],
      "name": "LIMIT_MAX_AMOUNT_BETS",
      "outputs": [
        {
          "internalType": "uint256",
          "name": "",
          "type": "uint256"
        }
      ],
      "payable": false,
      "stateMutability": "view",
      "type": "function"
    },
    {
      "constant": true,
      "inputs": [],
      "name": "maxAmountOfBets",
      "outputs": [
        {
          "internalType": "uint256",
          "name": "",
          "type": "uint256"
        }
      ],
      "payable": false,
      "stateMutability": "view",
      "type": "function"
    },
    {
      "constant": true,
      "inputs": [],
      "name": "minimumBet",
      "outputs": [
        {
          "internalType": "uint256",
          "name": "",
          "type": "uint256"
        }
      ],
      "payable": false,
      "stateMutability": "view",
      "type": "function"
    },
    {
      "constant": true,
      "inputs": [],
      "name": "numberOfBets",
      "outputs": [
        {
          "internalType": "uint256",
          "name": "",
          "type": "uint256"
        }
      ],
      "payable": false,
      "stateMutability": "view",
      "type": "function"
    },
    {
      "constant": true,
      "inputs": [],
      "name": "owner",
      "outputs": [
        {
          "internalType": "address",
          "name": "",
          "type": "address"
        }
      ],
      "payable": false,
      "stateMutability": "view",
      "type": "function"
    },
    {
      "constant": true,
      "inputs": [
        {
          "internalType": "address",
          "name": "",
          "type": "address"
        }
      ],
      "name": "playerInfo",
      "outputs": [
        {
          "internalType": "uint256",
          "name": "amountBet",
          "type": "uint256"
        },
        {
          "internalType": "uint256",
          "name": "numberSelected",
          "type": "uint256"
        }
      ],
      "payable": false,
      "stateMutability": "view",
      "type": "function"
    },
    {
      "constant": true,
      "inputs": [
        {
          "internalType": "uint256",
          "name": "",
          "type": "uint256"
        }
      ],
      "name": "players",
      "outputs": [
        {
          "internalType": "address",
          "name": "",
          "type": "address"
        }
      ],
      "payable": false,
      "stateMutability": "view",
      "type": "function"
    },
    {
      "constant": true,
      "inputs": [],
      "name": "totalBet",
      "outputs": [
        {
          "internalType": "uint256",
          "name": "",
          "type": "uint256"
        }
      ],
      "payable": false,
      "stateMutability": "view",
      "type": "function"
    },
    {
      "constant": false,
      "inputs": [
        {
          "internalType": "uint256",
          "name": "_numberSelected",
          "type": "uint256"
        }
      ],
      "name": "bet",
      "outputs": [],
      "payable": true,
      "stateMutability": "payable",
      "type": "function"
    },
    {
      "constant": true,
      "inputs": [
        {
          "internalType": "address",
          "name": "_player",
          "type": "address"
        }
      ],
      "name": "checkPlayerExists",
      "outputs": [
        {
          "internalType": "bool",
          "name": "",
          "type": "bool"
        }
      ],
      "payable": false,
      "stateMutability": "view",
      "type": "function"
    },
    {
      "constant": false,
      "inputs": [],
      "name": "generateWinnerNumber",
      "outputs": [],
      "payable": false,
      "stateMutability": "nonpayable",
      "type": "function"
    },
    {
      "constant": false,
      "inputs": [
        {
          "internalType": "uint256",
          "name": "_winnerNumber",
          "type": "uint256"
        }
      ],
      "name": "distributePrizes",
      "outputs": [],
      "payable": false,
      "stateMutability": "nonpayable",
      "type": "function"
    },
    {
      "constant": false,
      "inputs": [],
      "name": "resetData",
      "outputs": [],
      "payable": false,
      "stateMutability": "nonpayable",
      "type": "function"
    },
    {
      "constant": false,
      "inputs": [],
      "name": "kill",
      "outputs": [],
      "payable": false,
      "stateMutability": "nonpayable",
      "type": "function"
    }
  ],
  "bytecode": "0x6080604052600a60045534801561001557600080fd5b50604051610b30380380610b308339818101604052604081101561003857600080fd5b810190808051906020019092919080519060200190929190505050336000806101000a81548173ffffffffffffffffffffffffffffffffffffffff021916908373ffffffffffffffffffffffffffffffffffffffff160217905550600082146100a357816001819055505b6000811180156100b4575060648111155b156100c157806004819055505b5050610a5e806100d26000396000f3fe6080604052600436106100dd5760003560e01c80637365870b1161007f578063e08a96cd11610059578063e08a96cd14610323578063f71d96cb1461034e578063fb1796e0146103c9578063fe5e1853146103e0576100dd565b80637365870b146102735780638da5cb5b146102a1578063c38a8afd146102f8576100dd565b806341c0e1b5116100bb57806341c0e1b51461019e578063478c4e0e146101b55780634b114691146101cc5780636ca3fc3b14610238576100dd565b80632ca8c6d3146100df5780634081d9161461010a57806341769d4314610173575b005b3480156100eb57600080fd5b506100f461040b565b6040518082815260200191505060405180910390f35b34801561011657600080fd5b506101596004803603602081101561012d57600080fd5b81019080803573ffffffffffffffffffffffffffffffffffffffff169060200190929190505050610411565b604051808215151515815260200191505060405180910390f35b34801561017f57600080fd5b506101886104b3565b6040518082815260200191505060405180910390f35b3480156101aa57600080fd5b506101b36104b8565b005b3480156101c157600080fd5b506101ca610549565b005b3480156101d857600080fd5b5061021b600480360360208110156101ef57600080fd5b81019080803573ffffffffffffffffffffffffffffffffffffffff16906020019092919050505061056b565b604051808381526020018281526020019250505060405180910390f35b34801561024457600080fd5b506102716004803603602081101561025b57600080fd5b810190808035906020019092919050505061058f565b005b61029f6004803603602081101561028957600080fd5b81019080803590602001909291905050506107ba565b005b3480156102ad57600080fd5b506102b6610924565b604051808273ffffffffffffffffffffffffffffffffffffffff1673ffffffffffffffffffffffffffffffffffffffff16815260200191505060405180910390f35b34801561030457600080fd5b5061030d610949565b6040518082815260200191505060405180910390f35b34801561032f57600080fd5b5061033861094f565b6040518082815260200191505060405180910390f35b34801561035a57600080fd5b506103876004803603602081101561037157600080fd5b8101908080359060200190929190505050610955565b604051808273ffffffffffffffffffffffffffffffffffffffff1673ffffffffffffffffffffffffffffffffffffffff16815260200191505060405180910390f35b3480156103d557600080fd5b506103de610991565b005b3480156103ec57600080fd5b506103f56109af565b6040518082815260200191505060405180910390f35b60035481565b600080600090505b6005805490508110156104a8578273ffffffffffffffffffffffffffffffffffffffff166005828154811061044a57fe5b9060005260206000200160009054906101000a900473ffffffffffffffffffffffffffffffffffffffff1673ffffffffffffffffffffffffffffffffffffffff16141561049b5760019150506104ae565b8080600101915050610419565b50600090505b919050565b606481565b6000809054906101000a900473ffffffffffffffffffffffffffffffffffffffff1673ffffffffffffffffffffffffffffffffffffffff163373ffffffffffffffffffffffffffffffffffffffff161415610547576000809054906101000a900473ffffffffffffffffffffffffffffffffffffffff1673ffffffffffffffffffffffffffffffffffffffff16ff5b565b600060058161055891906109b5565b5060006002819055506000600381905550565b60066020528060005260406000206000915090508060000154908060010154905082565b6105976109e1565b600080905060008090505b6005805490508110156106e2576000600582815481106105be57fe5b9060005260206000200160009054906101000a900473ffffffffffffffffffffffffffffffffffffffff16905084600660008373ffffffffffffffffffffffffffffffffffffffff1673ffffffffffffffffffffffffffffffffffffffff168152602001908152602001600020600101541415610682578084846064811061064257fe5b602002019073ffffffffffffffffffffffffffffffffffffffff16908173ffffffffffffffffffffffffffffffffffffffff168152505082806001019350505b600660008273ffffffffffffffffffffffffffffffffffffffff1673ffffffffffffffffffffffffffffffffffffffff168152602001908152602001600020600080820160009055600182016000905550505080806001019150506105a2565b506106eb610549565b60006064600254816106f957fe5b04905060008090505b828110156107b357600073ffffffffffffffffffffffffffffffffffffffff1684846064811061072e57fe5b602002015173ffffffffffffffffffffffffffffffffffffffff16146107a65783816064811061075a57fe5b602002015173ffffffffffffffffffffffffffffffffffffffff166108fc839081150290604051600060405180830381858888f193505050501580156107a4573d6000803e3d6000fd5b505b8080600101915050610702565b5050505050565b6107c333610411565b156107cd57600080fd5b600181101580156107df5750600a8111155b6107e857600080fd5b6001543410156107f757600080fd5b34600660003373ffffffffffffffffffffffffffffffffffffffff1673ffffffffffffffffffffffffffffffffffffffff1681526020019081526020016000206000018190555080600660003373ffffffffffffffffffffffffffffffffffffffff1673ffffffffffffffffffffffffffffffffffffffff1681526020019081526020016000206001018190555060036000815480929190600101919050555060053390806001815401808255809150509060018203906000526020600020016000909192909190916101000a81548173ffffffffffffffffffffffffffffffffffffffff021916908373ffffffffffffffffffffffffffffffffffffffff16021790555050346002600082825401925050819055506004546003541061092157610920610991565b5b50565b6000809054906101000a900473ffffffffffffffffffffffffffffffffffffffff1681565b60015481565b60045481565b6005818154811061096257fe5b906000526020600020016000915054906101000a900473ffffffffffffffffffffffffffffffffffffffff1681565b60006001600a438161099f57fe5b060190506109ac8161058f565b50565b60025481565b8154818355818111156109dc578183600052602060002091820191016109db9190610a04565b5b505050565b60405180610c800160405280606490602082028038833980820191505090505090565b610a2691905b80821115610a22576000816000905550600101610a0a565b5090565b9056fea265627a7a723158204cab5978313ca6931968780ee612408e2152b9a0bb7fc173f094a4ba49529f3764736f6c63430005100032",
  "source": "// SPDX-License-Identifier: MIT\n// cast address to address payable:\n// https://ethereum.stackexchange.com/questions/65693/how-to-cast-address-to-address-payable-in-solidity-0-5-0\n\npragma solidity ^0.5.0;\n\ncontract Casino {\n    address public owner;\n    uint256 public minimumBet;\n    uint256 public totalBet;\n    uint256 public numberOfBets;\n    uint256 public maxAmountOfBets = 10;\n    uint256 public constant LIMIT_MAX_AMOUNT_BETS = 100;\n    address[] public players;\n\n    struct Player {\n        uint256 amountBet;\n        uint256 numberSelected;\n    }\n\n    mapping(address => Player) public playerInfo;\n\n    constructor(uint256 _minBet, uint256 _maxBets) public {\n        owner = msg.sender;\n        if(_minBet != 0)\n            minimumBet = _minBet;\n        if(_maxBets > 0 && _maxBets <= LIMIT_MAX_AMOUNT_BETS)\n            maxAmountOfBets = _maxBets;\n    }\n\n    // payable is a modifier.\n    // It means this function can receive ether when executed\n    // sets value to msg.value (amount of wei)\n    function bet(uint256 _numberSelected) public payable {\n        require(!checkPlayerExists(msg.sender));\n        require(_numberSelected >= 1 && _numberSelected <= 10);\n        require(msg.value >= minimumBet);\n\n        playerInfo[msg.sender].amountBet = msg.value;\n        playerInfo[msg.sender].numberSelected = _numberSelected;\n        numberOfBets++;\n        players.push(msg.sender);\n        totalBet += msg.value;\n\n        if(numberOfBets >= maxAmountOfBets) generateWinnerNumber();\n    }\n\n    // constant indicates this function does not call gas\n    // since it is reading values that are already in the blockchain\n    // players (is a state variable)\n    function checkPlayerExists(address _player) public view returns(bool) {\n        for(uint256 i = 0; i < players.length; i++) {\n            if(players[i] == _player) return true;\n        }\n\n        return false;\n    }\n\n    function generateWinnerNumber() public {\n        // this isn't secure since block number will not change\n        // for the current block, so miners can see it\n        // QuestionToSelf: when is this block generated\n        uint256 winnerNumber = block.number % 10 + 1;\n        distributePrizes(winnerNumber);\n    }\n\n    function distributePrizes(uint256 _winnerNumber) public {\n        // why is it necesary to create fixed size array\n        address payable[100] memory winners;\n        // count for the array of winners\n        uint256 count = 0;\n\n        for(uint256 i = 0; i < players.length; i++) {\n            address playerAddress = players[i];\n            if(playerInfo[playerAddress].numberSelected == _winnerNumber) {\n                winners[count] = address(uint160(playerAddress));\n                count++;\n            }\n            // this will delete all the players betting data\n            delete playerInfo[playerAddress];\n        }\n        resetData();\n\n        // How much each winner gets\n        uint256 winnerEtherAmount = totalBet / winners.length;\n\n        for(uint256 j = 0; j < count; j++) {\n            // Check that the address in this fixed array is not empty\n            // QuestionToSelf: how to allow dynamic number of players?\n            // and what does address(0) mean exactly\n            if(winners[count] != address(0)) {\n                winners[j].transfer(winnerEtherAmount);\n            }\n        }\n    }\n\n    function resetData() public {\n        players.length = 0; // delete players array\n        totalBet = 0;\n        numberOfBets = 0;\n    }\n\n    // Fallback function in case someone sends ether to the contract,\n    // so it doesn't get lost and to increase the treasury of thi\n    //  contract that will be distributed in each game\n    function() external payable {}\n\n    // used to destroy contract.\n    // last resort when contract has been compromised\n    // and can't be secured\n    function kill() public {\n        if(msg.sender == owner) {\n            selfdestruct(address(uint160(owner)));\n        }\n    }\n}\n",
  "sourcePath": "/home/mime/Documents/IndexZero/blockchains/betting-dapp/contracts/Casino.sol",
  "compiler": {
    "name": "solc",
    "version": "0.5.16+commit.9c3226ce.Emscripten.clang"
  },
  "schemaVersion": "3.4.1",
  "updatedAt": "2021-06-30T21:17:56.159Z",
  "networkType": "ethereum",
  "devdoc": {
    "methods": {}
  },
  "userdoc": {
    "methods": {}
  }
}